:1000000015C02FC02EC015C42CC02BC02AC029C0BB
:1000100028C027C026C025C024C023C022C021C0BC
:1000200020C01FC01EC074656D702E0011241FBE3D
:10003000CFE5D4E0DEBFCDBF10E0A0E6B0E0ECEF4E
:10004000FDE002C005900D92A23BB107D9F720E078
:10005000A2EBB0E001C01D92A33DB207E1F751D47D
:10006000CBC6CECF899A8A9A8B9A8C9A089580FFB4
:1000700002C0949A01C0949881FF02C0939A01C073
:10008000939882FF02C0929A01C0929883FF02C0A7
:10009000919A089591980895CF93C82FE3DF979A86
:1000A0008C2F82958F70E3DF9798979A8C2FDFDFE4
:1000B00097988FEE90E00197F1F700C00000CF9184
:1000C00008959598E9CF959AE7CF90E8980F9830E2
:1000D00008F48770F8CFCF93DF93EC0189918823E0
:1000E00011F0F3DFFBCFDF91CF910895CF93DF9332
:1000F000FC018491EF012196882319F0E6DFFE01CF
:10010000F8CFDF91CF910895CF93DF93EC01219643
:100110005BD69FEF980F9E3F18F4D7DFCE01F6CF46
:10012000DF91CF910895CF93DF93CDB7DEB761977D
:100130000FB6F894DEBF0FBECDBF4AE0BE016F5FC1
:100140007F4FF0D5C8DF61960FB6F894DEBF0FBEC3
:10015000CDBFDF91CF910895CF93DF93CDB7DEB7B9
:1001600061970FB6F894DEBF0FBECDBF20E1AE01A0
:100170004F5F5F4FE1D5AFDF61960FB6F894DEBFFA
:100180000FBECDBFDF91CF910895EF92FF920F93F5
:100190001F93CF93DF9300D0CDB7DEB78770880F62
:1001A000880F880F805C69837A838BDF6981E62EF4
:1001B0007A81F72E8701085F1F4FF70181917F0138
:1001C00082DFE016F106C9F70F900F90DF91CF9113
:1001D0001F910F91FF90EF9008950F931F93CF936E
:1001E000DF93EB018770880F880F880F805C69DFD1
:1001F0008E01085F1F4FFE01849165DF2196C017B5
:10020000D107C9F7DF91CF911F910F910895EF9218
:10021000FF920F931F93CF93DF93EB018770880FAB
:10022000880F880F805C4DDF7E0188E0E80EF11CAE
:100230008E010F5F1F4FCE01C7D545DF0E151F057D
:1002400011F0E801F5CFDF91CF911F910F91FF9051
:10025000EF900895813009F480E46058860F31CF23
:1002600081E02FDF87E496E20197F1F700C00000FC
:10027000089583E026DF87E496E20197F1F700C056
:1002800000000895EFDE8D9A8F9A959A979A8FE2E3
:1002900095E70197F1F700C0000097989598979A15
:1002A00083E0E5DE979887E090E20197F1F700C0E0
:1002B0000000979A83E0DBDE979887EC90E0019747
:1002C000F1F700C00000979A83E0D1DE979887ECA1
:1002D00090E00197F1F700C00000979A82E0C7DE36
:1002E000979887EC90E00197F1F700C0000088E252
:1002F000E8DE88E0E6DE8CE0E4DE86E0E2DEB0CF39
:10030000FC01680F791F80E048E1E617F70781F0EC
:10031000219198E0322F3827532F517030FD8427D8
:100320008695513009F480682695915099F7EDCF64
:1003300008950F931F93CF93DF93CDB7DEB76097E8
:100340000FB6F894DEBF0FBECDBF90E1E0E6F0E05F
:10035000DE01119601900D929A95E1F7DB01EC9187
:1003600011969C91F0E0F92B803179F4DF01AE7F9A
:10037000E3E0AA0FBB1FEA95E1F7FB019681ECE0F1
:10038000F0E0E91BF109EA0FFB1FF7FF07C091E05E
:10039000DA019C93F195E195F10902C0DA011C9212
:1003A000883281F4DB0114968C91982F90769036E8
:1003B00049F086FF02C0EE7F05C085FF02C0EC7FDA
:1003C00001C0E87FCF0144E0969587954A95E1F713
:1003D000D9018C93EF70FF2781E090E08C0F9D1F77
:1003E000E80FF91F8081D8018C9380E060960FB6EA
:1003F000F894DEBF0FBECDBFDF91CF911F910F915B
:100400000895882319F0719561957109442319F0B5
:10041000319521953109621773073CF081E090E036
:100420002617370724F080E008958FEF9FEF089597
:100430000F931F93CF93DF93EC018B01B801888159
:100440007CD1888381508D3F30F4F80180818832DF
:1004500011F0803199F7DF91CF911F910F9108959D
:10046000FF920F931F93CF93DF93CDB7DEB72997FA
:100470000FB6F894DEBF0FBECDBF8FEF898703EBB9
:1004800010E0F12C89858823F9F082E0F816E1F07C
:10049000BE016F5F7F4FCE010996CADF89858E5FEF
:1004A000823090F0FE01319620E030E08191D80159
:1004B000A20FB31F8C932F5F3F4F28303105B1F748
:1004C000F394085F1F4FDECF8F2D29960FB6F89457
:1004D000DEBF0FBECDBFDF91CF911F910F91FF9077
:1004E0000895CF93DF93EC01E6D081110CC0BE01DB
:1004F00084EB65D181E0FBD0C82FDDD081E0C11154
:1005000003C080E001C081E0DF91CF9108951F9387
:10051000CF93DF93182FEB01CED081110AC0C2D048
:10052000882349F0BE0184E44AD1113031F0BDD0B6
:1005300004C081E003C082E001C080E0DF91CF9180
:100540001F9108954F925F926F927F928F929F9228
:10055000AF92BF92CF92DF92EF92FF920F931F93D1
:10056000CF93DF93CDB7DEB729970FB6F894DEBFF0
:100570000FBECDBF6C015B014A0189019CD0811186
:1005800020C0B6018EEB1BD1CE0101967C013E014D
:100590009AE0690E711C2701CED0F70181937F018B
:1005A000E615F705C9F769E070E0C201A9DE81111F
:1005B0000AC09401A501B201F6018081BADE80E093
:1005C00003C081E001C083E029960FB6F894DEBF36
:1005D0000FBECDBFDF91CF911F910F91FF90EF9094
:1005E000DF90CF90BF90AF909F908F907F906F9053
:1005F0005F904F9008955F926F927F928F929F923B
:10060000AF92BF92CF92DF92EF92FF920F931F9320
:10061000CF93DF93CDB7DEB729970FB6F894DEBF3F
:100620000FBECDBF582E6B015A01890144D08111F4
:1006300020C060E070E08EEBC2D0CE0101967C015C
:100640004E019AE0890E911C370175D0F701819314
:100650007F01E815F905C9F769E070E0C30150DED4
:10066000811109C09501A601B301852D62DE80E0EC
:1006700003C081E001C083E029960FB6F894DEBF85
:100680000FBECDBFDF91CF911F910F91FF90EF90E3
:10069000DF90CF90BF90AF909F908F907F906F90A2
:1006A0005F90089586B381700895C09AB89A0895AE
:1006B000C098B8980895C098B89A8FEB93E00197C6
:1006C000F1F700C000009FB7F894B898E0EBEA9506
:1006D000F1F786B39FBFEBE3F3E03197F1F700C08A
:1006E0000000B09B02C08170089581E008959FB71B
:1006F000F894B89A22E02A95F1F700C08111B898D1
:1007000028E22A95F1F7B09B80E028E72A95F1F7D7
:10071000B8989FBF0895CF93DF93C82FD8E08C2F50
:100720008170E5DFC6958111C068D150C1F78C2F6B
:10073000DF91CF9108958FEFEECFDF92EF92FF928E
:100740000F931F93CF93DF93E82EEB01B4DF81115A
:100750002BC080EFE0DFF12C10E488EFD82ED10E13
:1007600081E0C5DF082F81E0C2DF882319F0002374
:1007700061F01CC0011109C01E1528F0888180FF9E
:1007800004C0E11611F0F12E01E0802FB0DF988156
:10079000969501119068988311501D11E1CF219613
:1007A0001111DBCF8F2D03C08FEF01C08EEFDF91D2
:1007B000CF911F910F91FF90EF90DF900895FF92DE
:1007C0000F931F93CF93DF93F82EEB0174DF2097E5
:1007D00059F085E5A0DF8E01085F1F4F89919BDFEF
:1007E000C017D107D9F702C08CEC95DF8F2DDF91B0
:1007F000CF911F910F91FF908ECF682F80E02ADD5F
:100800008091CF00882319F080E790E002C085E84E
:1008100090E061DC8091D10090E0019684DC87E972
:1008200090E059DC8091CC0090E07DDC82E790E0A4
:1008300052CC1F920F920FB60F9211242F936F93E9
:100840007F938F939F932091B200822F61E237D2E2
:10085000911103C081E08093C8002F5F2093B20004
:10086000253680F081E08093CE008091C4008F5FB8
:100870008093C4008091C4008C3310F01092C400A7
:100880001092B2008091D000813059F48091C9005B
:100890008F5F8093C900853120F01092D0001092B4
:1008A000C9009F918F917F916F912F910F900FBEF3
:1008B0000F901F9018959091D1008091CD009817BE
:1008C00010F4C29A0895C29808958091C4002091AE
:1008D000D20030E02E5F3F4F90E0B901FCD1892B70
:1008E00021F488E290E09BBD8ABD8091C40090E035
:1008F000B901F1D1019721F48FE090E09BBD8ABD51
:10090000089587B3877C87BB88B3886388BBBA9A0E
:10091000C2988FB58B688FBD8EB584608EBDB99A35
:1009200084E190E09BBD8ABD85B5886085BD85B5B5
:10093000876085BD8DE483BD89B7806889BF789461
:100940008FDD8093C70085E08093D20088E280939A
:10095000CD008091CB00807E8F7D8093CB00109264
:10096000D0001092C3008EDC60E080E073DC86E291
:1009700090E0BCDB60E081E06DDC84E790E0ABDB25
:10098000CC24C39480E2D82E93E0F92EEE24E39495
:10099000CDECD0E002ED10E086B38873883309F423
:1009A0006BC0E092D0008091C900843109F064C02E
:1009B00086B38873883309F45FC0B39926C08091E9
:1009C000CB0084FD10C091E0980F9F70807F892B31
:1009D0008093CB00E092CA00982F9F70933019F457
:1009E000807F8093CB008091CB0084FF0EC0982F36
:1009F0009F7021F48D258093CB0007C0E091C50046
:100A0000F091C60080818F5F8083B4990AC0909175
:100A1000CB0094FB882780F98C2580FB94F9909378
:100A2000CB00B59927C08091CB0084FD11C09FE019
:100A3000980F9F70807F892B8093CB00E092CA0033
:100A4000982F9F709F3021F4807F82608093CB002D
:100A50008091CB0084FF0EC0982F9F7021F48D25CC
:100A60008093CB0007C0E091C500F091C600808163
:100A7000815080831092C9008091CE008130C1F5F1
:100A80008091C4006F2D1BD1911103C0E9DC8093CC
:100A9000C7008091C4006F2D12D1913021F460E025
:100AA00070E081E034DD8091C4006F2D08D1923078
:100AB00039F48091CB0085FF02C0FDDE01C0C298F1
:100AC0008091CB008F7019F4E092CE0011C080911C
:100AD000C4006F2DF4D0923049F42CEC30E041ED9D
:100AE00050E06FEC70E083EB90E02CDD1092CE00D4
:100AF0008091CB0085FDE9DE8091CB008F7009F0FD
:100B00006BC08091CA00882379F0AADB60E080E0A6
:100B1000A1DB83E990E0DFDA6FE080E09BDB82E736
:100B200090E0D9DA1092CA008091CE008823B1F00B
:100B30002CEC30E041ED50E06FEC70E083EB90E0A6
:100B400001DD811103C08BE058DE06C066E080E065
:100B500081DB89E790E0BFDA1092CE008091CB0074
:100B600084FF1BC08091C8008823B9F066E081E053
:100B700071DB8FE790E0AFDA8091CB0060E085FD1C
:100B800005C081E067DB81E890E004C081E062DBC2
:100B900087E890E0A0DA1092C8008091CB0084FD35
:100BA0001BC08091C8008823A9F066E081E052DB79
:100BB00085E890E090DA8091CB0060E085FD05C08B
:100BC00081E048DB81E890E004C081E043DB87E816
:100BD00090E081DA1092C8008091CB008F70813054
:100BE00069F58091CA00882369F0D093C600C0934C
:100BF000C50036DB60E080E02DDB8DE890E06BDA4D
:100C00001092CA008091C8008130C1F48091CB005D
:100C100063E084FF05C081E01DDB8FE790E004C046
:100C200081E018DB85E890E056DA60E081E012DBD5
:100C30008091CD0090E077DA1092C8008091CB00CF
:100C40008F70823009F0A8CE8091CA00882369F0A5
:100C50001093C6000093C50003DB60E080E0FADA81
:100C600089E990E038DA1092CA008091C80081309A
:100C700009F092CE8091CB006FE084FF05C081E047
:100C8000E9DA8FE790E004C081E0E4DA85E890E0FB
:100C900022DA60E081E0DEDA83EA90E01CDA6BE0E1
:100CA00081E0D8DA8091D20090E03DDA6EE081E018
:100CB000D1DA8FEA90E00FDA1092C8006DCE991B5E
:100CC00079E004C0991F961708F0961B881F7A9543
:100CD000C9F78095089597FB072E16F4009406D067
:100CE00077FD08D00BD007FC05D03EF49095819598
:100CF0009F4F0895709561957F4F0895AA1BBB1B68
:100D000051E107C0AA1FBB1FA617B70710F0A61B0B
:100D1000B70B881F991F5A95A9F780959095BC012C
:100D2000CD010895BB274A3031F4992322F4BDE266
:100D3000909581959F4F30C0BB272A3051F499235D
:100D400042F4BDE290958095709561957F4F8F4FED
:100D50009F4F01C0BB27FA01A62F621771058105BD
:100D60009105330B30FB66F0AA27660F771F881FAB
:100D7000991FAA1FA21710F0A21B63953850A9F75C
:100D8000A05DAA3308F0A95DA19336F7B111B19324
:100D90001082CA0121C0BB27FB015527AA27880F53
:100DA000991FAA1FA41710F0A41B83955051B9F7DF
:100DB000A05DAA3308F0A95DA193009779F7B1115E
:100DC000B1931192CB0108C0E199FECF9FBB8EBBBE
:100DD000E09A99278DB30895DC01FC01672F71918A
:100DE0007723E1F7329704C07C916D937083629111
:0C0DF000AE17BF07C8F30895F894FFCFBA
:100DFC00000101020203040405060607070809099D
:100E0C002D00430073746F70006572726F72003C3A
:100E1C000073746F70200073746172740075737456
:100E2C0061772074656D702E004D6965737A616E03
:100E3C006965006D6965737A616A20636F3A007346
:020E4C000000A4
:00000001FF
